:060000000A128A11F22F22
:100CE20001348316031306083F3886000800831276
:100CF200031388018316031388010A128A117226CC
:100D020008007008710403198A2EAA308312031393
:100D120088008312031388090800700871040319FC
:100D2200962E0F308312031388008312031388094F
:100D32000800F1007108031DA32E83120313060895
:100D42003F3908003F30831203130605F0003F309D
:100D520070060319B32E7D080319B32EFD01060890
:100D62003F3908003F300605F0003F307006031D92
:100D7200BC2EFD01FD0A3F30080070087104031902
:100D8200C92E013083120313A8000030A900880184
:100D9200831203130808031DD22E0130A80000306D
:100DA200A900080A031DD72EA801A90128082904B1
:100DB200031DE52E0808F200F3010310F20DF30DF6
:100DC2007208F6007308F42E0808F200F30103100B
:100DD200F20DF30D01307204F40000307304F500DB
:100DE2007408F6007508F700760888000800700895
:100DF20071040319052FFB01FC0101308312031357
:100E0200AA000030AB008801831203130808031DF7
:100E12001B2F0130AA000030AB007B087C04031DAD
:100E2200142F0130152F0030F200F3017208FB007D
:100E32007308FC00080A031D202FAA01AB017B08DE
:100E42007C040319452F2A082B04031D322F08089E
:100E5200F200F3010310F20DF30D7208F6007308AD
:100E6200412F0808F200F3010310F20DF30D0130D7
:100E72007204F40000307304F5007408F60075087B
:100E8200F7007608880008002A082B04031D502F5B
:100E92000808F2000310720CF300F4015D2F080839
:100EA200F20001300310F20CFF3E031D532F80307D
:100EB2007204F3000030F4007308F8007408F900BB
:100EC2007808880008000A128A1178260A128A1104
:100ED200013083120313A6000030A7000130A000E6
:100EE2000030A1003E30FA007A08A4005030A2007F
:100EF200C330A30001300A128A119A260A128A11FB
:100F0200FA007A0883120313A5003F30250603195D
:100F12009A2F2408250603199A2F2508FA007A0821
:100F2200A4000130A6000030A7005030A200C33058
:100F3200A3000130A2020030031CA303A302220A71
:100F4200031D7B2F230A031D7B2F5030A20703189A
:100F5200A30AC330A307DF2F2708F1002608F000F9
:100F62000A128A11F8260A128A11ED2F831203132C
:100F72002708F1002608F0000A128A11BE260A127A
:100F82008A11ED2F831203132708F1002608F000BF
:100F92000A128A1182260A128A11ED2F8312031372
:100FA2002708F1002608F0000A128A118E260A127A
:100FB2008A11ED2F831203138801ED2F2408373A8B
:100FC2000319CF2F0C3A0319C32F063A0319B72F6F
:100FD200033A0319AD2FDB2F83120313A601A701D6
:100FE2007B2F0A128A117126FD00A801A901AA010C
:0E0FF200AB01FB01FC0183010A128A11642F7E
:02400E00FB3F76
:00000001FF
