:060000000A128A11122809
:10000800FE00030EF9000408FA000A08FB00831238
:1000180003137F08FC000A128A11F22B0A128A11B4
:10002800152883135130FD000430FE00C130FF0055
:10003800443084000A128A11A4240A128A1120303A
:10004800840034300A128A11E02483010A128A11CA
:100058002D28831203134D08BE004C08BD000A1258
:100068008A1176240A128A1101300A128A1154243C
:100078000A128A1183120313BB003B08C300430A08
:1000880003194A284308BB003B08BC003008310468
:10009800031D3828430A03198D282F08803AFF00CA
:1000A80080307F02031D5A2808302E0203188D283D
:1000B800831203134308BB002E08203E84003B082C
:1000C800831380002E08C03EBB003B08B8002A30CE
:1000D8000A128A118D240A128A11831203132E0818
:1000E800443E840083130008BB002E08203E840091
:1000F80000083B06031D86280130AC070318AD0A2B
:100108000030AD070130AE070318AF0A0030AF0763
:1001180038280830831203132E062F04031DD52810
:100128002F082D06031D9A282E082C06031DD528F6
:10013800B4010C300A128A1178230A128A11831228
:100148000313B40101300A128A1178230A128A11A2
:10015800213083120313B8008030B9008030BB000F
:100168003B08BA000A128A1124240A128A110130A3
:1001780083120313B8008030B900C030BB003B08BD
:10018800BA000A128A1124240A128A110130831231
:100198000313B0000030B1008B1E38288B12861371
:1001A800382808302E062F04031D56292F082D063F
:1001B800031DE0282E082C06031956293208023E92
:1001C800B20033080318013E003EB3008B1E8B16A5
:1001D8000130AA070318AB0A0030AB07AC01AD0128
:1001E800AE01AF010130CE000030CF00B4010130C4
:1001F8000A128A1178230A128A1183120313B4018E
:100208000C300A128A1178230A128A113F3083129D
:100218000313B8008030B9008030BB003B08BA0037
:100228000A128A1124240A128A113D3083120313F8
:10023800B8000030B9008930BB003B08BA000A1288
:100248008A1124240A128A11831203133D08013EDD
:10025800BB003B08BD000030C2000030C1000030C8
:10026800C0000030BF004208031D38284108031DA4
:10027800382803304002031D4529E8303F02031D9A
:100288004529031838280130BF070030031801300A
:10029800C007003003180130C107003003180130CF
:1002A800C207372905302A062B04031D9029B401FB
:1002B8000C300A128A1178230A128A118312031346
:1002C800B40101300A128A1178230A128A113730D0
:1002D80083120313B8008030B9008030BB003B089C
:1002E800BA000A128A1124240A128A112F308312A2
:1002F8000313B8008030B900C030BB003B08BA0017
:100308000A128A1124240A128A1101308312031353
:10031800B0000030B1003828430A031D38282E08E1
:100328002F04031D38284E084F0403193828CE011E
:10033800CF01B40101300A128A1178230A128A11F6
:10034800123083120313B8008030B9008030BB002C
:100358003B08BA000A128A1124240A128A1183124D
:100368000313B401C0300A128A1178230A128A11C1
:1003780083120313B4010F300A128A1178230A1268
:100388008A11382883120313881108158814081451
:100398006430B4000030B500FF30B4070318B50A64
:1003A800FF30B507340A031DD029350A031DD029AB
:1003B8000618E029013008008618E42902300800F0
:1003C8000619E8290330080088150811881408144C
:1003D8006430B4000030B500FF30B4070318B50A24
:1003E800FF30B507340A031DF029350A031DF0292B
:1003F8000618002A043008008618042A0530080068
:100408000619082A063008008815081588100814E7
:100418006430B4000030B500FF30B4070318B50AE3
:10042800FF30B507340A031D102A350A031D102AA8
:100438000618202A073008008618242A08300800E1
:100448000619282A09300800881508158814081084
:100458006430B4000030B500FF30B4070318B50AA3
:10046800FF30B507340A031D302A350A031D302A28
:100478000618402A2A3008008618442A0030080046
:100488000619482A23300800FF300800C3308312B9
:100498000313B900CC30B800B80B502AB90B502A56
:1004A800000083120313B40133300A128A11B523F2
:1004B8000A128A111B3083120313B9009D30B80049
:1004C800B80B642AB90B642A692A83120313B4018E
:1004D80033300A128A11B5230A128A11A530831201
:1004E8000313B800B80B762A792A83120313B401D0
:1004F80033300A128A11B5230A128A11832A842AF0
:10050800000083120313B40102300A128A11B523C2
:100518000A128A11A53083120313B800B80B922A65
:10052800952A83120313B40128300A128A11B523BD
:100538000A128A11A53083120313B800B80BA22A35
:10054800A52A83120313B40101300A128A11B523B4
:100558000A128A11043083120313B9003D30B8001F
:10056800B80BB42AB90BB42A83120313B4010C30A4
:100578000A128A11B5230A128A11A53083120313AD
:10058800B800B80BC52AC82A0800F601F11FD32AFB
:10059800F009F109F00A0319F10AF601F60AF31F46
:1005A800DE2AF209F309F20A0319F30A0130F4000A
:1005B8007408F606F701F801700871040319152B81
:1005C800F501F50AF11BF42A01300310F00DF10DC5
:1005D800FF3E031DE92A0130F4007408F507E62AF6
:1005E80001300310F70DF80DFF3E031DF52A7108C1
:1005F8007302031D012B70087202031C0A2B70087A
:10060800F2027108031CF303F3027714013003109C
:10061800F10CF00CFF3E031D0B2B0130F502031DFE
:10062800F42A760803191D2BF709F809F70A0319A4
:10063800F80A7808F1007708F0000800FF1B2C2B57
:1006480083137F1883170008840A0319FF0A080018
:1006580003308A000408840A820700346334723441
:10066800613463346B3465346434203474346834EE
:100678006534203463346F3464346534003445346D
:100688006E347434653472342034503461347334C5
:10069800733477346F3472346434003465347834A6
:1006A800633465346C346C3465346E34743420349B
:1006B80079346F347534003462346C346F34633495
:1006C8006B3465346434003479346F3475342034D1
:1006D800613472346534003461347434743465348C
:1006E8006D3470347434003483120313B700341C2F
:1006F800812B831203130915842B83120313091109
:100708003708F03988008914A53083120313B5001F
:10071800B50B8C2B8F2B83120313891037080F39D5
:10072800B50003300310B50DFF3E031D962B0310D3
:10073800350D88008914A53083120313B500B50B55
:10074800A32BA62B8312031389101B3083120313C8
:10075800B6009D30B500B50BAF2BB60BAF2BB42B45
:10076800080083120313B700341CBE2B8312031333
:100778000915C12B8312031309113708F0398800B2
:100788008914A53083120313B500B50BC92BCC2BE4
:1007980083120313891037080F39B500033003108B
:1007A800B50DFF3E031DD32B0310350D88008914AA
:1007B800A53083120313B500B50BE02BE32B83128E
:1007C800031389101B3083120313B6009D30B50044
:1007D800B50BEC2BB60BEC2BF12B08000B1D192CD1
:1007E8000108083E81003308F1003208F00020308B
:1007F800F2004E30F3000A128A11C9220A128A1135
:10080800013083120313A8070318A90A0030A907A7
:1008180071082906031D122C70082806031D182CC0
:10082800A801A901803086060B117C08FF007B080F
:100838008A007A088400790E8300FE0E7E0E090075
:1008480083120313B4013A080A128A11B5230A1253
:100858008A11831203133908FF00380884000A122A
:100868008A1122230A128A11003A031908008312F6
:100878000313B401B40A3908FF00380884000A12C7
:100888008A1122230A128A110A128A11B5230A121E
:100898008A11013083120313B8070318B90A2D2CE3
:1008A80083120313B7000A128A11C6210A128A1189
:1008B80083120313B6003608B8003708031D662CE8
:1008C80038080800380A03196F2C500803196F2CD0
:1008D800D00138080800380A031D742CD001D00A4A
:1008E800FF300800831603138613831203130608C8
:1008F8007F3986008B170A128A11D7240A128A11A7
:100908000A128A11B1240A128A110A128A11CE24F3
:10091800080083120313B900B40138080A128A11B7
:10092800B5230A128A1183120313B401B40A3908D1
:100938000A128A11B52308007E088A007F088200FF
:10094800A0240A128A118000840A04087D0603196B
:100958000034FF0A0319FE0AA42C831603130608A1
:10096800073886000808F0398800811383120313BA
:100978008815081588140814080000340134003458
:10098800013400340134003401343134003401348A
:100998000034013483160313811281150630831243
:1009A80003138100080083160313880109118910B5
:1009B8000A128A114A22080064008001840A040687
:0809C800031900340406E12CC0
:02400E00FB3F76
:00000001FF
