:060000000A128A11122809
:10000800FE00030EF0000408F1000A08F200831253
:1000180003137F08F3000A128A11EF280A128A11C3
:10002800152883133830FD000130FE008C30FF00A6
:10003800303084000A128A1165210A128A110A12C4
:100048008A11A2210A128A11F70020308400303068
:100058000A128A11942183010A128A1133280A127A
:100068008A1172210A128A118B1A442800308312CD
:100078000313B3000030B2000030B1000A30B00002
:1000880000300A128A113D210A128A1183120313C1
:10009800B8003808F6000130B8000030B900003068
:1000A800BA000030BB003808A0023908031C390F19
:1000B8005E285F28A1023A08031C3A0F64286528C5
:1000C800A2023B08031C3B0F6A286B28A302200AE4
:1000D800031D8C28210A031D8C28220A031D8C2845
:1000E800230A031D8C280030A3000030A20003302F
:1000F800A100E830A0003E307606031D8C280030B1
:10010800B3000030B2000030B1006430B0008B168C
:1001180033082702031D9A2832082602031D9A284D
:1001280031082502031D9A283008240203189E2846
:100138000814AE2827083302031DAC28260832020B
:10014800031DAC2825083102031DAC282408300201
:10015800031C08100130A407003003180130A5075C
:10016800003003180130A607003003180130A70734
:100178000130B8000030B9000030BA000030BB00D0
:100188003408B80735080318350FCB28CC28B90729
:1001980036080318360FD128D228BA0737080318AB
:1001A800370ABB0727083B06031DE42826083A063A
:1001B800031DE42825083906031DE4282408380609
:1001C800031D38280030A7000030A6000030A50025
:1001D8000030A40038280B1D32290108083E810090
:1001E8000130AC07003003180130AD0700300318A8
:1001F8000130AE07003003180130AF0720302C065D
:100208004E3003192D062E042F04031D312900300A
:10021800AF000030AE000030AD000030AC0001305F
:10022800A807003003180130A9070030031801306F
:10023800AA07003003180130AB0705302806290447
:100248002A042B04031D31290030AB000030AA001A
:100258000030A9000030A8008B120B117308FF00B2
:1002680072088A0071088400700E8300FE0E7E0EEC
:100278000900F5007508031D4629831203130608B3
:100288003F3908003F30831203130605F4003F305E
:10029800740603195629770803195629F701060821
:1002A8003F3908003F300605F4003F307406031D4F
:1002B8005F29F701F70A3F3008007E088A007F08A7
:1002C800820061210A128A118000840A04087D06CE
:1002D80003190034FF0A0319FE0A6529831603135C
:1002E80088018312031388010A128A119C210A12B9
:1002F8008A110A128A1182218B17080083160313A8
:100308008112811506308312031381008B160800B1
:100318000A340034003400346434003400340034C7
:1003280064008001840A0406031900340406952930
:0E0338008316031306083F38860008000134C0
:02400E00FB3F76
:00000001FF
